:100000000C945D000C9485000C9485000C94850084
:100010000C9485000C9485000C9485000C9485004C
:100020000C9485000C9485000C9485000C9485003C
:100030000C9485000C9485000C9485000C9485002C
:100040000C94C0020C9485000C9485000C948500DF
:100050000C9485000C9485000C9485000C9485000C
:100060000C9485000C94850000000008000201003B
:100070000003040700000000000000000000000072
:10008000250028002B0000000000240027002A0083
:10009000040404040404040402020202020203032E
:1000A0000303030301020408102040800102040836
:1000B0001020010204081020BD0311241FBECFEF41
:1000C000D8E0DEBFCDBF11E0A0E0B1E0E4EDF8E0A4
:1000D00002C005900D92A831B107D9F721E0A8E13F
:1000E000B1E001C01D92A532B207E1F710E0CDE505
:1000F000D0E004C02197FE010E946204CC35D107F4
:10010000C9F70E940A030C9468040C94000090E064
:10011000FC01EC55FF4F249180579F4FFC018491C7
:10012000882399F090E0880F991FFC01EA57FF4F50
:10013000A591B491FC01E458FF4F859194918FB73C
:10014000F894EC91E22BEC938FBF0895AF92BF929D
:10015000CF92DF92EF92FF920F931F93CF93DF9393
:100160006C017B018B01040F151FEB015E01AE18C2
:10017000BF08C017D10759F06991D601ED91FC91E4
:100180000190F081E02DC6010995892B79F7C50111
:10019000DF91CF911F910F91FF90EF90DF90CF9063
:1001A000BF90AF90089590E0FC01E859FF4F249173
:1001B000FC01EC55FF4F3491FC01E057FF4FE491F7
:1001C000EE23C9F0222339F0233001F1A8F42130C5
:1001D00019F1223029F1F0E0EE0FFF1FE458FF4F34
:1001E000A591B4918FB7F894EC91611126C0309528
:1001F0003E233C938FBF08952730A9F02830C9F0E3
:10020000243049F7809180008F7D03C08091800069
:100210008F7780938000DFCF84B58F7784BDDBCF6D
:1002200084B58F7DFBCF8091B0008F778093B00035
:10023000D2CF8091B0008F7DF9CF3E2BDACF3FB780
:10024000F8948091190190911A01A0911B01B0912D
:100250001C0126B5A89B05C02F3F19F00196A11DD2
:10026000B11D3FBFBA2FA92F982F8827BC01CD0100
:10027000620F711D811D911D42E0660F771F881F5F
:10028000991F4A95D1F708958F929F92AF92BF928E
:10029000CF92DF92EF92FF924B015C010E941F010F
:1002A0006B017C010E941F016C197D098E099F0959
:1002B000683E734081059105A8F321E0821A9108F8
:1002C000A108B10888EEC80E83E0D81EE11CF11C1D
:1002D00081149104A104B10429F7FF90EF90DF90FD
:1002E000CF90BF90AF909F908F900895089590E029
:1002F00080E00895CF93DF93EC0160E08E810E944F
:10030000D30061E08E810E94D30060E08E810E9464
:10031000D3008BE891E00197F1F7DF91CF91089539
:10032000CF92DF92EF92FF920F931F93CF93DF93C1
:100330006C017C0187E0E80EF11CD0E0C0E0062FE4
:1003400010E0B8010C2E02C0759567950A94E2F78B
:100350006170F70181917F010E94D3002196C43022
:10036000D10579F7C601DF91CF911F910F91FF90D1
:10037000EF90DF90CF900C947A01CF92DF92EF92C2
:10038000FF920F931F93CF93DF93EC01F62E642F10
:100390008C810E94D3008D818F3F19F060E00E9414
:1003A000D3000F2D10E08F8584FF25C06E0187E0FC
:1003B000C80ED11CF12CE12CB8010E2C02C0759591
:1003C00067950A94E2F76170F60181916F010E94CE
:1003D000D300FFEFEF1AFF0A88E0E816F10461F797
:1003E000CE01DF91CF911F910F91FF90EF90DF90A1
:1003F000CF900C947A01B80184E0759567958A9541
:10040000E1F7CE010E9490016F2DCE01DF91CF91D7
:100410001F910F91FF90EF90DF90CF900C9490017F
:1004200041E00E94BD0181E090E0089540E00C941D
:10043000BD010F931F93CF93DF93EC01623019F44A
:100440008F8588608F876B8B1C8A80E48D8B80E121
:100450008E8B80E58F8B8C810E9487008D818F3FF2
:1004600011F00E9487008E810E9487008E01980102
:100470002C1B3D0B8F8584FD0CC084E090E00F5F4A
:100480001F4F2817390744F4F80186810E9487001E
:10049000EECF88E090E0F3CF8BE39DE00197F1F79A
:1004A00060E08C810E94D30060E08E810E94D300C6
:1004B0008D818F3F19F060E00E94D3006F8564FD4D
:1004C00039C063E0CE010E9490010BE416E4C8013C
:1004D0000197F1F763E0CE010E949001C8010197F6
:1004E000F1F763E0CE010E94900183E592E001976D
:1004F000F1F762E0CE010E9490016F856062CE014B
:100500000E94160284E0888B6CE0CE010E941602E5
:1005100061E0CE010E9416028BE39FE10197F1F7A3
:1005200082E0898B66E0CE01DF91CF911F910F9120
:100530000C9416026062CE010E9416028BE496E4CF
:100540000197F1F76F856062CE010E94160283E584
:1005500092E00197F1F76F856062CE010E9416026A
:10056000CCCFFB0101900020E9F73197AF01461B8A
:10057000570BDC01ED91FC910280F381E02D099491
:100580001F920F920FB60F9211242F933F938F93C8
:100590009F93AF93BF9380911D0190911E01A091F5
:1005A0001F01B09120013091180123E0230F2D3756
:1005B00058F50196A11DB11D2093180180931D01CE
:1005C00090931E01A0931F01B09320018091190107
:1005D00090911A01A0911B01B0911C010196A11DDF
:1005E000B11D8093190190931A01A0931B01B09340
:1005F0001C01BF91AF919F918F913F912F910F90CF
:100600000FBE0F901F90189526E8230F0296A11D8C
:10061000B11DD2CFCF93DF93CDB7DEB7A1970FB681
:10062000F894DEBF0FBECDBF789484B5826084BDE0
:1006300084B5816084BD85B5826085BD85B58160E6
:1006400085BD80916E00816080936E001092810064
:10065000809181008260809381008091810081601F
:1006600080938100809180008160809380008091E0
:10067000B10084608093B1008091B000816080936C
:10068000B00080917A00846080937A0080917A0033
:10069000826080937A0080917A00816080937A00F2
:1006A00080917A00806880937A001092C1006CE09B
:1006B00071E080912101909122010E94B1026AE0D3
:1006C00070E080E090E00E9444018AE0882E912C46
:1006D000A12CB12C90E0E92E90E0F92E809121011F
:1006E00090912201DC015396EC91E23008F043C076
:1006F000E150E80FF92FF11D648960680E9416022D
:10070000C0902101D09022018FB7F89420911D0153
:1007100030911E0140911F01509120018FBF19A2FD
:100720008E010F5D1F4FCA01B901A50194010E94FE
:100730004004605DF80162938F0121153105410588
:10074000510589F7309721F0BF01C6010E94B1021F
:1007500064E670E080E090E00E94440164E670E0AE
:1007600080E090E00E944401E114F10409F4B6CF66
:100770000E940000B3CFE1E0BCCFDF92EF92FF9286
:100780000F931F93CF93DF93CDB7DEB76C970FB660
:10079000F894DEBF0FBECDBF8FE00E9487001C82A1
:1007A0001B8284E091E09A83898383E08D838FEFBD
:1007B0008E838DE08F838EE0888785E0E82EE98642
:1007C00096E0F92EFA8627E0D22EDB861C861D865F
:1007D0001E861F86188A61E08E010F5F1F4FC801B9
:1007E0000E94190262E0C8010E94190210932201BE
:1007F00000932101D98EEA8EFB8E87E00E9487004C
:1008000085E00E94870086E00E94870060E087E024
:100810000E94D30060E085E00E94D30060E086E0A3
:100820000E94D3001C8E098DFA8C18E060E08F2D99
:100830000E94D30061E0802F0E94D30060E0802FEF
:100840000E94D300115091F761E08B8D0E94D3007C
:1008500060E08B8D0E94D300CE01499690932401D5
:10086000809323016C960FB6F894DEBF0FBECDBF08
:10087000DF91CF911F910F91FF90EF90DF9008953E
:10088000A1E21A2EAA1BBB1BFD010DC0AA1FBB1F94
:10089000EE1FFF1FA217B307E407F50720F0A21B06
:1008A000B30BE40BF50B661F771F881F991F1A9473
:1008B00069F760957095809590959B01AC01BD019D
:1008C000CF010895EE0FFF1F0590F491E02D0994DC
:0408D000F894FFCFCA
:1008D400000000001002A6007701760148656C6CE8
:0808E4006F2C776F726C640049
:00000001FF
